:020000040800F2
:10000000D004002001010008F5050008A101000846
:10001000F1050008990100083909000800000000F6
:10002000000000000000000000000000F5060008CD
:100030009D01000800000000F7050008F706000811
:100040001B0100081B0100081B0100081B01000820
:100050001B0100081B0100081B0100081B01000810
:100060001B0100081B0100081B0100081B01000800
:100070001B0100081B0100081B0100081B010008F0
:100080001B0100081B0100081B0100081B010008E0
:100090001B0100081B0100081B0100081B010008D0
:1000A0001B0100081B0100081B0100081B010008C0
:1000B0001B0100081B0100081B0100081B010008B0
:1000C0001B0100081B0100081B0100081B010008A0
:1000D0001B0100088D0800081B0100081B01000817
:1000E0001B0100081B0100081B010008DFF80CD0F1
:1000F00000F040F800480047E50A0008D00400205E
:100100000648804706480047FEE7FEE7FEE7FEE7B1
:10011000FEE7FEE7FEE7FEE7FEE7FEE7150800085C
:10012000ED000008D2B201E000F8012B491EFBD21D
:1001300070470022F6E710B513460A4604461946F2
:10014000FFF7F0FF204610BD30B50B4601460020FA
:100150002022012409E021FA02F59D4205D303FA89
:1001600002F5491B04FA02F52844151EA2F101020A
:10017000F1DC30BD064C074D06E0E06840F00103BD
:1001800094E8070098471034AC42F6D3FFF7B2FF6B
:10019000E40B0008040C000800BFFEE7704770473E
:1001A00000BFFEE708B5054989690143034A91612B
:1001B000114689690140009100BF08BD001002404E
:1001C0002DE9F04102460B461868C0F30F2595FA59
:1001D000A5F0B0FA80F47CE00120A040284000287F
:1001E00076D0082C04D240F2011000FA04F106E0A7
:1001F000A4F108004FF00116864046F0806158686F
:1002000002EB116691FAA1FCBCFA8CFC4FEA8C0857
:100210004FF00F0C0CFA08FC376827EA0C0791FA2C
:10022000A1FCBCFA8CFC4FEA8C0C00FA0CFC47EAEF
:100230000C07376000BF1869D66826EA11260F0A36
:1002400097FAA7F7B7FA87F700FA07F73E43D660A1
:1002500000BF5868012802D05868092838D198682A
:1002600002EB116691FAA1FCBCFA8CFC4FEA8C08F7
:100270004FF0030C0CFA08FC376827EA0C0791FAD8
:10028000A1FCBCFA8CFC4FEA8C0C00FA0CFC47EA8F
:100290000C07376000BFD86802EB116691FAA1FC29
:1002A000BCFA8CFC4FEA8C084FF0040C0CFA08FCEA
:1002B000376827EA0C0791FAA1FCBCFA8CFC4FEADC
:1002C0008C0C00FA0CFC47EA0C07376000BF00BF3B
:1002D000641C25FA04F000287FF47EAF0120BDE8FD
:1002E000F0814FF47A71B0FBF1F2521E4FF0E0232F
:1002F0005A6100229A6105221A6100BF704710B549
:10030000044600F0ADF92060206800F075F96060E7
:10031000606800F081F9A060606800F08FF9E0602B
:1003200010BD000001490860704700000400002073
:100330002DE9FF4104460D4600270026204600F027
:1003400044F8002832D1E9686868084329690843FD
:10035000E16841F20C6291430843E060A8682169BA
:1003600021F440510143216100BF6869616921F4B2
:1003700040710143616100BF6846FFF7C0FF0D484F
:10038000844201D1039E08E00B48844201D1029EC1
:1003900003E00A48844200D1029E3EB1286828B199
:1003A0000127314620462A6800F014F8384604B088
:1003B000BDE8F081003801400044004000480040A2
:1003C00001460868C0F3C01070470146C868C0F312
:1003D0004030704770B501EBC10303EB011394008B
:1003E000B3FBF4F301EBC10404EB01149500B4FB7F
:1003F000F5F46425B4FBF5F404EBC40505EB041433
:10040000A3EB8403322404EB03136424B3FBF4F35F
:1004100003F0F00301EBC10404EB01149500B4FBFD
:10042000F5F46425B4FBF5F403EB041401EBC1030C
:1004300003EB01139500B3FBF5F301EBC10505EBED
:1004400001159600B5FBF6F56426B5FBF6F505EB50
:10045000C50606EB0515A3EB8503322505EB031353
:100460006425B3FBF5F303F00F0323449BB28360D1
:1004700070BD4160704708B54FF0E02109690091F7
:1004800000BF411C01B1401C06E04FF0E0210969AA
:1004900001F4803101B1401E0028F6D108BD70473B
:1004A0002DE9F0418CB0182106A8FFF742FE142177
:1004B00001A8FFF73EFE4FF48040FFF773FE0420D3
:1004C000FFF770FE4448019009200290032003903A
:1004D0000020049001A94148FFF772FE40480190B6
:1004E0000420029001A93D48FFF76AFE25213D4BFB
:1004F0001B68C3F30220002425460346C3F1070C02
:10050000BCF1040F02D94FF0040C01E0C3F1070C59
:10051000674603F1040CBCF1070F02D24FF0000C48
:1005200001E0A3F1030C66464FF0010C0CFA07FC46
:10053000ACF1010C0CEA040C0CFA06FC4FF00108BB
:1005400008FA06F8A8F1010808EA05084CEA0802CA
:1005500000BF002908DA1007040E22480C3001F011
:100560000F031B1FC45403E01007030E1E4843541F
:1005700000BF252000F01F02012191404209920096
:1005800002F1E022C2F8001100BF4FF4E130069002
:1005900000200790089009900C200A9000200B90F2
:1005A00006A91248FFF7C4FE00BF1048006920F4F6
:1005B00090400E4908610846406920F02A004861D1
:1005C00000BF00BF0846C06840F40050C86000BFCC
:1005D0000CB0BDE8F08100000200020400080140F8
:1005E000040004040CED00E000E400E000380140E9
:1005F00000BFFEE770477047014600BF04484068EF
:1006000000F0F0000009034A125C21FA02F0704782
:1006100000100240CC0B0008014600BF05484068AE
:1006200000F4E060044A02EB1020027821FA02F0A4
:100630007047000000100240DC0B0008014600BFBC
:100640000548406800F46050044A02EBD02002786C
:1006500021FA02F07047000000100240DC0B000895
:1006600010B5002400BF0B48406800F00C0020B11A
:10067000042804D0082808D103E0074C07E0064C02
:1006800005E000F00BF8044601E0034C00BF00BF9A
:10069000204610BD0010024000127A000021002206
:1006A00000BF1148406800F4803002461AB1B2F52C
:1006B000803F0CD101E00D490BE000BF0A484068C3
:1006C000C0F34040401C0A4BB3FBF0F101E0074986
:1006D00000BF00BF00BF0448406800F47010022350
:1006E00003EB9040484370470010024000093D0072
:1006F00000127A007047704710B50220424909681D
:1007000021F007010143404A116000BF00BF1046BD
:10071000006800F00700022801D0FFF740FD00BF8D
:100720003A48006840F480303849086000BF00BF94
:1007300000BF36480068C0F340400028F8D04FF4AE
:1007400080304FF4E011314A526822F47C1200F4F8
:1007500040330B431A432D4B5A6000BF00BF18466D
:10076000006840F080701946086000BF00BF00BFFD
:1007700026480068C0F340600028F8D000202349D4
:10078000496821F0F0010143204A516000BF101573
:100790001146496821F4E0610143516000BF002027
:1007A0001146496821F460510143516000BF0220A5
:1007B0001146496821F003010143516000BF00BFA9
:1007C00000BF1248406800F00C000828F8D110481B
:1007D000FFF787FD0420042808D14FF0E0210969C4
:1007E00041F004014FF0E022116107E04FF0E021F9
:1007F000096921F004014FF0E022116100BF0448B3
:10080000FFF790FD10BD00000020024000100240E4
:1008100000A24A041148006840F001000F49086036
:10082000084640680E4908400C4948600846006880
:100830000C490840094908600846006820F48020F7
:1008400008600846406820F4FE0048604FF41F002E
:100850008860C80304490860704700000010024027
:100860000000FFF8FFFFF6FE08ED00E000BF00BF4C
:1008700005480068C0F340100028F8D000BF0248C7
:100880004068C0B2704700000038014010B500BF9A
:1008900015480068C0F3401040B100BF1248C0685E
:1008A000C0F3401010B100F021F81CE000BF0E486A
:1008B0000068C0F3C00018B10B48001D006812E0CA
:1008C00000BF09480068C0F3400018B10648001D89
:1008D000006808E000BF04480068C0F3800010B161
:1008E0000148001D006810BD0038014000BF0448E9
:1008F0004068C0B20349087001200349087070477E
:1009000000380140010000200000002070B50546BD
:100910000E4600240BE000BF0648FFF751FD0028FB
:10092000FAD0295D0348FFF7A4FD601C84B2B442ED
:10093000F1DB70BD0038014000BFFEE70FB4084B8B
:1009400010B504A902AA039800F01CF8044602A9F5
:10095000002000F0C1F8204610BC5DF814FB000038
:10096000D90A000802E008C8121F08C1002AFAD1FB
:1009700070477047002001E001C1121F002AFBD11F
:10098000704700002DE9FF4F89B09B4604460025C3
:1009900006E025280BD05A460B999047641C6D1C25
:1009A00020780028F5D10DB02846BDE8F08F00274B
:1009B000B8460122474900E0074314F8013F203BB5
:1009C00002FA03F00842F7D120782E2819D114F842
:1009D000010F47F004072A280ED06FF02F0220786D
:1009E000A0F1300109290CD808EB880102EB410184
:1009F00000EB0108641CF2E70A98641C50F8048BB1
:100A00000A9020780028CED0642808D0692806D023
:100A100075281ED05A460B9990476D1C58E00A99CC
:100A20004FF00A0901C90A91002802DA40422D213B
:100A300002E0390504D52B218DF82010012103E0B7
:100A4000F90704D02021F7E78A4608AE0DE000211F
:100A5000FAE70A994FF00A0901C90A91F7E74946EE
:100A6000FFF772FB303106F8011D0028F7D1ADEB1E
:100A7000060000F12009780701D44FF00108C845AD
:100A800002DDA8EB090000E000208046002706E018
:100A900008A85A46C05D0B9990476D1C7F1C5745AE
:100AA000F6DB04E030205A460B9990476D1CB8F1F4
:100AB0000001A8F10108F5DC05E016F8010B5A4623
:100AC0000B9990476D1CB9F10001A9F10109F4DC03
:100AD000641C65E7092801000A68531C0B6010704C
:100AE000704700000120FFF75DFB03200246304BFA
:100AF00019684FF6FF0319402E4B0B4343EA0221BE
:100B00002B4B196000BF00BF2B48406820F0E0600D
:100B1000294948600846406840F00070486000BFBE
:100B2000FFF7EAFDFFF7BBFCFFF7BAFC6420FFF715
:100B3000A2FC00BF2148C06840F020001F49C860E7
:100B400000BF00BF0846406940F00100486100BF97
:100B500000242CE00BE0FFF789FE194908550846F0
:100B6000005D0D2801D00E2C00D101E0641CF2E7DD
:100B700000BF32211348FFF7C9FE6420FFF77BFC5A
:100B800032211048FFF7C2FE6420FFF774FC0025F5
:100B90000AE00B48425D0CA10A48FFF7CFFE322164
:100BA0000848FFF7B3FE6D1CA542F2DB0024D1E735
:100BB0000CED00E00000FA050000014000380140A3
:100BC0009E0000203A000020202564000000000064
:100BD00000000000010203040607080900000000ED
:100BE00001020304040C00080000002008000000BB
:100BF000640900080C0C000808000020C80400006C
:0C0C0000740900080000000000A24A0473
:04000005080000ED02
:00000001FF
